:020000040800F2
:1000000070170020B9020008912E0008A5260008EC
:10001000B12D0008911E00086B510008000000007F
:100020000000000000000000000000000540000883
:10003000F51E0008000000009538000895450008EE
:10004000D3020008D3020008D3020008D13D000803
:10005000D3020008D302000875230008D302000869
:10006000D3020008D3020008D3020008D30200081C
:10007000D3020008D3020008D3020008D30200080C
:10008000D3020008D3020008D3020008D3020008FC
:10009000D3020008D3020008D3020008D3020008EC
:1000A000D3020008D3020008D3020008D3020008DC
:1000B000D3020008D3020008ED460008D30200086E
:1000C000D3020008D3020008D3020008D3020008BC
:1000D000D3020008414C0008D3020008714D00080B
:1000E000D3020008413B0008D3020008D3020008F5
:1000F000D3020008D3020008D3020008D30200088C
:10010000D3020008D3020008D3020008D30200087B
:10011000D3020008D3020008D30200087547000884
:10012000D3020008D3020008D3020008D30200085B
:1001300000F002F800F0B0F80AA090E8000C824449
:100140008344AAF10107DA4501D100F0A5F8AFF226
:10015000090EBAE80F0013F0010F18BFFB1A43F0A5
:1001600001031847B8010100D80101000A444FF00B
:10017000000C10F8013B13F0070408BF10F8014B06
:100180001D1108BF10F8015B641E05D010F8016B4B
:10019000641E01F8016BF9D113F0080F1EBF10F8AF
:1001A000014BAD1C0C1B09D16D1E58BF01F801CBD2
:1001B000FAD505E014F8016B01F8016B6D1EF9D555
:1001C0009142D6D37047000000230024002500266A
:1001D000103A28BF78C1FBD8520728BF30C148BFAA
:1001E0000B6070476E2900F07084702900F0A981BF
:1001F00066290DF0028265290DF0FF8167290DF057
:10020000FC816129AFF3008003681B0A28BF41F01D
:100210008001692900F01A81642900F0178175298D
:1002200000F014816F2900F06985782900F075814C
:10023000E92900F00385E42900F00085F52900F0A4
:10024000FD84EF2900F06685F82900F074810368C9
:10025000DB0928BF41F08001632900F07284732913
:1002600000F07784E32900F0BF87F32900F0C4870A
:10027000002070471FB501F019F80400002000218C
:100280000CF0D0F8401C6060002000210CF0B4F8A5
:10029000E0601FBD10B510BD00F0DAFF1146FFF79A
:1002A000E9FF0AF06BFB01F0B3F803B4FFF7F2FFCC
:1002B00003BC08F0B4FC0000094880470948004727
:1002C000FEE7FEE7FEE7FEE7FEE7FEE7FEE7FEE706
:1002D000FEE7FEE704480549054A064B7047000063
:1002E000C14500083101000870110020701700207E
:1002F0007013002070130020704710B54C1084EA72
:10030000530404D54042C1F1000138BF491E1B42CD
:1003100004D55242C3F1000338BF5B1E00F0E8FA77
:1003200014F0804F04D04042C1F1000138BF491E93
:1003300014F0004F04D05242C3F1000338BF5B1EDB
:1003400010BD00001CB50C46064B7B44694600906E
:10035000204600F0D4FB04460020694600F0E2FB92
:1003600020461CBDD70700000FB4044910B503AAEE
:10037000029800F0F3FB10BC5DF814FB380000207D
:100380000FB41CB5084B06AA7B446946009005983B
:1003900000F0B5FB04460020694600F0C3FB204690
:1003A0001CBC5DF814FB00009907000070B5044602
:1003B00085690068C10601D5302600E02026C00707
:1003C00007D070BDD4E9012130469047206A401C17
:1003D00020626D1EF6D570BD70B504468569007843
:1003E000C00707D170BDD4E9012120209047206AC1
:1003F000401C20626D1EF6D570BD70B50C460546DA
:10040000012A05D02878800600D5EA69002302E099
:10041000012305E05B1C934202D2E05C0028F9D185
:10042000A869E618C01AA861286A184428622846F4
:10043000FFF7BCFF04E0D5E9012114F8010B904758
:10044000B442F8D32846FFF7C7FF70BD2DE9F0414D
:100450000646002410687529314616A510D000F014
:10046000C9FA002802DA404213A507E031688A077A
:1004700001D512A502E0490704D511A5012401E028
:1004800000F0C1FA00210A2206F1240709E0B0FBBE
:10049000F2FCB0FBF2F302FB1C003030785418463B
:1004A000491C0028F3D123462A463046BDE8F041D6
:1004B00000F0B2BA000000002D0000002B00000088
:1004C00020000000F0B40D460188090502D5214C3A
:1004D0007C4402E01F4C7C440E34002100F12406D1
:1004E00008E002F00F071209E75D42EA03721B09F8
:1004F0007754491C52EA0307F3D10278002312070C
:1005000004D5702D06D009B1022311342246F0BC67
:1005100000F082BA01231034F8E770B504460D46A6
:100520002146106800F06FFA024629462046BDE8D1
:1005300070400023C6E7D21D22F00703D3E9002351
:10054000C0E70368126843F0200303600823C36117
:100550000023B7E732FC00002DE9F05F894604462E
:100560004FF0000ADFF874B1FB44C0F820A0204629
:10057000E1688847002874D0252806D0D4E90121F5
:100580009047206A401C2062F1E700265F46204623
:10059000E16888472028054607DB312D05D2781908
:1005A00010F8200C08B10643F1E7B00701D526F09A
:1005B0000406C4F81CA00027C4F818A02A2D09D0EE
:1005C000284608F025FB38B304EB8708303DC8F80F
:1005D000185019E059F8041B204604EB870291617A
:1005E000E1688847012F054618D1E069002820DA24
:1005F00026F020061DE0D8F8180000EB800005EB7F
:1006000040003038C8F818002046E16888470546A1
:1006100008F0FEFA0028EED1012F0AD02E2D08D1C5
:100620002046E16888477F1C0546022F46F02006D9
:10063000C4DBA069002803DA404246F00106A0614D
:10064000F00701D026F010066C2D0BD0682D09D0D4
:100650004C2D39D06A2D35D0742D35D07A2D33D02C
:1006600016E038E0E1682F4620468847B842054644
:1006700009D16C2F26D04FF48060E16806432046F4
:100680008847054604E06C2F1AD04FF4807006436B
:100690000DB3A5F14100192802D8203546F40066B3
:1006A0004A462946204626604E46FFF79BFD80B10C
:1006B00001280BD0F61D26F0070000F1080956E7C7
:1006C0004020E4E78020D8E70020D6E706F10409BF
:1006D0004DE7284652E7206ABDE8F09FC2FB0000C4
:1006E00030B505460B462A4613F8014B12F8010BAC
:1006F00008B1A042F8D01CB1002802D06D1CF1E76F
:10070000284630BD40EA010310B59B070FD1042AEB
:100710000DD310C808C9121F9C42F8D020BA19BACC
:10072000884201D9012010BD4FF0FF3010BD1AB131
:10073000D30703D0521C07E0002010BD10F8013B86
:1007400011F8014B1B1B07D110F8013B11F8014BAD
:100750001B1B01D1921EF1D1184610BD40EA0103C6
:10076000024630B59B0710D14FF0013400E008C2BB
:1007700008C91D1B9D4315EAC41FF8D013F0FF01E3
:1007800002F8011B0DD01B0AF8E711F8013B002B02
:1007900002F8013B05D011F8013B002B02F8013BA8
:1007A000F3D130BD10B5431C02E010F8011B71B14C
:1007B0008107FAD14FF0013202C88C1A8C4314EA37
:1007C000C211F9D0C01A0A0603D0C01E10BDC01A4B
:1007D00010BD0A0401D0801E10BD0902FCD0401ECD
:1007E00010BD10B5203AC0F00B80B1E81850203A87
:1007F000A0E81850B1E81850A0E81850BFF4F5AFC1
:100800005FEA027C24BFB1E81850A0E8185044BF4A
:1008100018C918C0BDE810405FEA827C24BF51F8B7
:10082000043B40F8043B08BF7047D20728BF31F8AB
:10083000023B48BF11F8012B28BF20F8023B48BFFC
:1008400000F8012B704702F0FF0343EA032242EA5B
:10085000024200F002B84FF000020429C0F01280FA
:1008600010F0030C00F01B80CCF1040CBCF1020F63
:1008700018BF00F8012BA8BF20F8022BA1EB0C0138
:1008800000F00DB85FEAC17C24BF00F8012B00F82E
:10089000012B48BF00F8012B70474FF0000200B554
:1008A000134694469646203922BFA0E80C50A0E893
:1008B0000C50B1F12001BFF4F7AF090728BFA0E841
:1008C0000C5048BF0CC05DF804EB890028BF40F80D
:1008D000042B08BF704748BF20F8022B11F0804F4F
:1008E00018BF00F8012B704770477047704770477A
:1008F00053EA020C00F069802DE9F04B4FF000063E
:10090000002B1FBFB3FA83F503FA05F424FA05F6AA
:100910005E4012BF1643B2FA82F502FA05F4C5F141
:1009200020051EBF22FA05FC44EA0C04203556EAD5
:10093000044C4FEA144418BF641C4FF000084FF0F9
:100940000009904271EB030C39D3002919BFB1FAA9
:1009500081F701FA07F6B0FA80F700FA07F6C7F157
:1009600020071EBF20FA07FC46EA0C062037B6FB1C
:10097000F4FCA7EB0507103F07F01F0BCBF1200697
:100980000CFA0BFB2CFA06F644BFB3460026202FC8
:10099000A4BF5E464FF0000B5BEA060C08BF4FF0A9
:1009A000010B19EB0B09ABFB027C48EB0608C01BE3
:1009B00006FB02CC0BFB03CC71EB0C01C1E70B4631
:1009C000024641464846BDE8F08B13B54FF00000A3
:1009D0004FF00001AFF30080BDE81C40704710B538
:1009E00000F0A2F9006810BD10B5044600F09CF9B3
:1009F000046010BD09684A0501D540B27047C905B9
:100A0000FCD500B2704709684A0501D5C0B27047ED
:100A1000C905FCD580B270472DE9F0470D469946CF
:100A20009246044600F124080168880604D5E0696E
:100A300021F01001216000E00120A84201DD471BE8
:100A400000E00027A1697A1902EB0900081AA061E9
:100A50002078C00602D42046FFF7A8FC002608E054
:100A6000D4E901211AF806009047206A401C761C40
:100A700020624E45F4DB2078C0060AD52046FFF7F9
:100A800095FC06E0D4E9012130209047206A401C03
:100A90002062381EA7F10107F4DC07E0D4E9012148
:100AA00018F805009047206A401C2062281EA5F116
:100AB0000105F3DC2046FFF78FFC2078000602D505
:100AC0000220BDE8F0870120FBE711680268006A98
:100AD000530501D508700AE0D30501D5088006E06A
:100AE000130603D5C217C1E9000200E00860012027
:100AF0007047000001694A1C02610878704700B520
:100B00008FB0CDE901310021059105497944CDE946
:100B1000031011466846FFF71FFD0FB000BD00002F
:100B2000E5FFFFFF0A6802F8010B0A60704710B585
:100B3000436913B1AFF3008001E0FFF75EFC0120D1
:100B400010BD127800F124010A7000224A700122BF
:100B5000EDE711684FF0FF32E9E70000074B70B591
:100B60000D467B44FFF7CBFF0446284600F048FBC8
:100B700010B14FF0FF3070BD204670BD779500007A
:100B80002DE9FF5F15468A460446DFF8AC80F8443D
:100B90000027D8E900103E46CDE9001010E03AF8F1
:100BA00016106A4602A800F02FFB411C07D02178DE
:100BB000890603D5E269391891420DD80744761C9D
:100BC0002078800602D5E069B84205DDAE42E6DB5A
:100BD0003AF816000028E2D1A069C01BA0612046A7
:100BE000FFF7E4FBD8E90010CDE90010002017E082
:100BF0003AF818106A4602A800F006FBB0F1FF3F71
:100C000081460BD000250DF1080B05E0D4E9012148
:100C10001BF8050090476D1C4D45F7D308F1010006
:100C2000B0428046E4DB206A384420622046FFF769
:100C3000D3FBBDE8FF9F0000FEF500002DE9F04169
:100C40008046D21D22F007020025D2E90002F529D4
:100C500015A614D0011E72F1000106DA0023D0EBB4
:100C6000030063EB020211A608E0D8F800108B071E
:100C700001D50FA602E0490701D50EA601251146B0
:100C8000002408F1240704E000F052F830323A550D
:100C9000641C50EA0102F7D12B46324621464046F9
:100CA000BDE8F041FFF7B8BE000000002D000000D5
:100CB0002B0000002000000030B4002100F12404CB
:100CC00008E002F00705D208303542EA4372DB083B
:100CD0006554491C52EA0305F3D10468002310A2AD
:100CE000250708D504F020040C4304D0C46901236F
:100CF0000CA2641EC46130BCFFF78EBE10B5044662
:100D000021461068FFF77FFE02462046BDE81040EE
:100D10000023D1E7D21D22F00701D1E90023CBE760
:100D20000000000030000000004870470C11002057
:100D300030B5B0F10A024FEA900E71F100034EEAAD
:100D4000817EB0EB0E0061EB91014FEA101E4EEA7E
:100D5000017E10EB0E0041EB11114FEA102E4EEA0E
:100D6000016E10EB0E0041EB11214FEA104E4EEADE
:100D7000014E10EB0E0041EB1141401841F1000112
:100D80004FEAD00040EA41704FEAD10110EB8005F4
:100D90004FEA810444EA907444EB01046D1944EB7A
:100DA0000404521BA3414FF0000348BF0A3200D590
:100DB00030BD401C41F1000130BD70472DE9FF4FAF
:100DC0000C461E464FF0FF378BB0D2E90001DDF82C
:100DD00060800A908A46C1F30A5505B93D46002154
:100DE00008464FF00000BAF1000F00F4400005DAA9
:100DF00000EB80004FF4400101EA50004FEA9059A7
:100E0000B9F1010F00DDB9460A9850EA4A000ED048
:100E100044F61050A5F2FF3545432F14B8F1000FEA
:100E20001ED07542291E1EDDC9F100021CE0B8F17A
:100E3000010F4FF0000001D0302103E0F24305E044
:100E40002154401CB042FBDB3046002200212154DB
:100E50000B99C1F80880C1E900200FB0BDE8F08F00
:100E6000BD1B6D1CDEE74A4600DA694206A800F0A9
:100E700061FA06AB93E8070003AB83E8070050462E
:100E80000A9900F00BFB8DE80700A0F500501F3811
:100E900000900398002D09DD42F21F014A460844E4
:100EA00003A90390684600F06AFD08E0A0F5005031
:100EB0004A461F3803A90390684600F074FD8DE888
:100EC00007000004000C03D04FF0FF30410800E0A1
:100ED0001046B8F1000F03D00022009215461EE024
:100EE000751E05D4FFF724FF303262556D1EF9D50B
:100EF000B3460122084302D000227F1C04E0207880
:100F0000302801D100227F1E002A099786D01DE0DB
:100F1000112D07DAFFF70CFF303262556D1C50EAD5
:100F20000102F5D1084302D00098C8B10EE00021BB
:100F3000681E05E0235C625C63542254401E491C19
:100F40008142F7DBAB46A81B401E0990002004F845
:100F50000B000B98099AC0F80880C0E9002B7CE7C9
:100F600011264FF0000859E72DE9F04F8846044656
:100F7000D21D22F0070191B0D1E90001CDE90A01AB
:100F800007F0CAFD02460B98C00F01D02D2007E0E4
:100F90002068810701D52B2002E0202101EAC00052
:100FA000032A099001D0072A05DB03464146204663
:100FB00000F080F90BE12078800601D5E06900E0BF
:100FC0000620B8F1650F814606D0B8F1660F18D03B
:100FD000B8F1670F70D131E00020B9F1110F009026
:100FE00001DB112301E009F101030AAA01A90CA800
:100FF000FFF7E4FEDDE90C70002609F101058346E8
:1010000047E001204B4600904FF000470AAA01A993
:101010000CA8FFF7D3FEDDE90DB00C995D46002664
:1010200010B909F101000D18B9EB050003D4C0F1A6
:10103000FF3609F10105A5EB09002BE0B9F1010F1D
:1010400001DA4FF001090020B9F1110F0090484674
:1010500001DD112300E003460AAA01A90CA8FFF74D
:10106000ADFEDDE90C704D46002683462078000772
:101070000AD4AB4500DA5D4601A8012D04DD411913
:1010800011F8011C302907D04F4502DA17F1040F7F
:1010900004DA012082460FE06D1EEEE7002F02DC2D
:1010A000ED1B3E4403E0781CA84200DD7D1CB81B0C
:1010B00000F1010A4FF000472078000703D4AA4549
:1010C00001DB4FF0FF3A0021B7F1004F0DF143086B
:1010D0008DF8431024D002202B23002F01DA7F4209
:1010E0002D230A21021EA0F1010000DC5FB197FB55
:1010F000F1FC97FBF1F201FB1C7C17460CF1300C64
:1011000008F801CDEEE7A8F1010003702188090578
:1011100001D5452100E06521A0F1010800F8011C7E
:1011200009980FA9A1EB0807FF1D00B10120411983
:1011300001EBEA70A1693844081A401EA0612078CA
:10114000C00602D42046FFF731F9099828B1D4E946
:1011500001219047206A401C20622078C00622D5D9
:101160002046FFF723F91EE0002E04DBB34502DD25
:1011700001A8805D00E03020D4E901219047206A79
:10118000401C2062761CAAF101005FEA000A0AD125
:1011900000F08CF8C0680168405CD4E901219047F8
:1011A000206A401C2062281EA5F10105DCDC07E056
:1011B000D4E9012118F8010B9047206A401C2062F5
:1011C000381EA7F10107F3DC2046FFF705F90320DD
:1011D00011B043E610B5436913B1AFF3008001E0ED
:1011E000FFF7CEFC012010BD128800F1240182849B
:1011F0000022C2840122EDE711684FF0FF32E9E7D7
:10120000007B00F08000704770B516460C4605461E
:1012100000F044F8036893F80101012806D0FF2C80
:101220000FD8185D68B101202C7070BDD3F807018C
:101230003246214603F2071303442846BDE87040B6
:1012400018474FF0FF3070BD004870470C11002068
:101250007546FFF7F9FFAE4605006946534620F094
:101260000700854618B020B5FFF734F8BDE82040E8
:101270004FF000064FF000074FF000084FF0000B52
:1012800021F00701AC46ACE8C009ACE8C009ACE805
:10129000C009ACE8C0098D467047000010B500F0E9
:1012A00005F8001D10BD00BF7DB10000004870476B
:1012B0002C1100202DE9F0411F4604460326016849
:1012C000072A01F4006004DB08B116A505E016A5A5
:1012D00003E008B115A500E015A521F0100020607D
:1012E000A069C01EA0610FB1401EA0612046FFF79B
:1012F0005DF84FB1D4E9012138469047206A401C7F
:101300002062C01C206206E0206AFAE7D4E90121CD
:1013100015F8010B9047761EF8D22046FFF75CF8CF
:10132000BDE8F0814E414E006E616E00494E4600B0
:10133000696E66002DE9F047814616468AB033484B
:1013400078440DC88DE80D0030487844801C03AC0B
:101350000DC884E80D0041F69B300844372190FB0E
:10136000F1F290FBF1F5A5F1800501FB12041B3CA5
:1013700002D56442012000E00020DFF890A0804602
:101380000027FA44AAF1BE0A0DE0E00709D0324670
:10139000684607EB47010AEB810100F004FB8DE88A
:1013A000070064107F1C002CEFD1184F7F44AC3F26
:1013B00018E0E80714D007EB04100DF1180A90E8C4
:1013C0000E008AE80E00C068F04201D1981908901A
:1013D000324606A903A800F0E6FA03AB83E807004B
:1013E0006D10641C002DE4D132466946B8F1000F3F
:1013F00003A802D000F0C3FA01E000F0D4FAC9E972
:101400000001C9F808200AB0BDE8F08770EF0000BD
:101410000446AFF300802046FEF747FF4FF0013C43
:1014200050F8042B51F8043B9A4221D1A2EB0C0353
:10143000934313EACC1317D150F8042B51F8043B13
:101440009A4215D1A2EB0C03934313EACC130BD1B0
:1014500050F8042B51F8043B9A4209D1A2EB0C033B
:10146000934313EACC13DBD04FF00000704700BF6A
:10147000D01A01BAB1FA81F101F0180122FA01F093
:10148000CB40C1F12001DBB2C0B2C01A2CFA01F38B
:10149000D11A914311EAC311E6D170475FEA400CBB
:1014A00008BF91F0000F4FEA8C234FEAC12243EAB4
:1014B00051514FEA1C5018BF00F5F0404FEA300080
:1014C00018BF41F000415FEA6C5C00F02980BCF17C
:1014D000FF3F08BF40F080407047130C06BF120466
:1014E0004FF0100C4FF0000C130E04BF12020CF161
:1014F000080C130F04BF12010CF1040C930F04BF6E
:1015000092000CF1020CD30F04BF52000CF1010C3D
:1015100011464FF00002A0F11F00A0EB0C00704735
:1015200011F0004F08BF704731F000413FF4D5AFD4
:101530000B0C06BF09044FF0100C4FF0000C0B0E03
:1015400004BF09020CF1080C0B0F04BF09010CF1D8
:10155000040C8B0F04BF89000CF1020CCB0F04BFED
:1015600049000CF1010CCCF12003A0EB0C0022FA95
:1015700003F302FA0CF241EA030100F101007047A3
:1015800020F07F4C80EA030023F07F47ACEB070399
:1015900003F57C5300F0004003F1FF032DE980497F
:1015A0004FEA154B09B44FEA144325EA0B4E24EADF
:1015B00003480FF2042606EB132749083E785FEA3A
:1015C000320203FB0667C7F5000707FB06F64FEA82
:1015D00054374FEAD64606F1020607FB066CCCF1FB
:1015E000005C4FEA1C472CEA074C07FB06F40CFB97
:1015F00006F504EB15464FEA961634BF00204FF06F
:1016000000404FEAD13706FB07FC4FEA1C4C0CFBAD
:101610000BF7D21B03FB0CF761EB07010CFB0EF77A
:10162000B0EB074072EB17420CFB08F734BFA2EB9C
:101630000742B2EB074261EB17414FEA0C444FEA15
:10164000910706FB07FC4FEA1C4C0CFB0BF7B0EBB9
:10165000C74072EB573203FB0CF734BFA2EBC74213
:10166000B2EBC74261EB57310CFB0EF7B0EBC70092
:1016700072EB57720CFB08F734BFA2EBC702B2EB58
:10168000C70261EB5771039F4FEA816141EA9211F2
:1016900004EBCC044FEAD1374FEA826206FB07FC29
:1016A00042EA90124FEA80604FEA1C4C0CFB0BF7A9
:1016B000D21B03FB0CF761EB07010CFB0EF7B0EB41
:1016C000074072EB17420CFB08F734BFA2EB07424E
:1016D000B2EB074261EB17414FEA8C554FEA910795
:1016E00004EB9C2406FB07FC4FEA1C4C0CFB0BF79D
:1016F000B0EBC74072EB573203FB0CF734BFA2EBE1
:10170000C742B2EBC74261EB57310CFB0EF7B0EBAF
:10171000C70072EB57720CFB08F734BFA2EBC7028D
:10172000B2EBC70261EB577115EB4C254FEA8161B3
:1017300041EA92114FEA82624FEAD13742EA9012AF
:1017400006FB07FC44F100044FEA80604FEA1C4CA2
:101750000CFB0BF7D21B03FB0CF761EB07010CFB37
:101760000EF7B0EB074072EB17420CFB08F734BFE3
:10177000A2EB0742B2EB074261EB174115EB1C15D8
:101780004FEA813141EA92414FEA823242EA904285
:101790004FEA80304FEA0C7644F1000448EA0343F4
:1017A0004EEA0B484FF0000EB2EB080C71EB03074A
:1017B00024BF624639464EEB0E0E4FF0000B001868
:1017C000524149414BEB0B0BB2EB080C71EB030799
:1017D0007BF1000B24BF624639464EEB0E0E4FF0F4
:1017E000000B0018524149414BEB0B0BB2EB080CBC
:1017F00071EB03077BF1000B24BF624639464EEBC9
:101800000E0E51EA020718BF46F0010616EB0E76DF
:1018100055F1000254F1000103D5BDE88901BDE88E
:101820000088BDE88901BDE80048B619524141EB86
:101830000101A3F10103704780807F7E7D7C7B7A6C
:101840007978777676757473727171706F6E6E6D6C
:101850006C6C6B6A6A696868676666656464636312
:1018600062616160605F5F5E5E5D5D5C5C5B5B5A98
:101870005A59595858575756565555555454535305
:1018800052525251515050504F4F4F4E4E4D4D4D60
:101890004C4C4C4B4B4B4A4A4A49494948484847AB
:1018A00047474746464645454544444444434343E9
:1018B0004342424242414141002B26D4770021D08D
:1018C0001CB54FEA370703B44FF010004FF010017A
:1018D0004FF000000FBCBDE810400BF1010BBBF155
:1018E000010F08BF5FEA170722BF12F1010211F1D1
:1018F00001014FF0004143F1000300F0004043EAD2
:1019000000007047F9D35708DAE746EA064613F1B4
:10191000400F4FEA16461FDD13F1200FDFBF1643BD
:101920000A46002120335B42C8D0C3F1200746EAB3
:10193000064602FA07F74FEA164646EA0706C3F1DB
:10194000200722FA03F201FA07F721FA03F14FF018
:10195000000342EA0702B1E746EA020646EA064603
:101960004FEA164646EA0106BCBF46EA0646360C72
:101970004FF000034FF000024FF000019EE72DE909
:10198000C048934630B491E8380007C831EA400CAB
:1019900048BF34EA430C03D5FFF7F2FDFFF78CFF95
:1019A000F0BCBDE800882DE9C048934630B491E80A
:1019B000380007C810F0804F08BF13F0804F03D1E4
:1019C00000F005F8FFF778FFF0BCBDE8008820F0D4
:1019D0007F4780EA030023F07F4C07EB0C03A3F55D
:1019E0007C5300F00040A3F1FE0392F0000F00F0E2
:1019F000B38095F0000F00F077802DE901494FEAA0
:101A000011404FEA144621EA004800FB06FC24EA94
:101A1000064708FB06F607FB08F800FB07F718EB7C
:101A200006484CEB164C4FEA124B18EB07484FEAAE
:101A300015464CEB174022EA0B4E0BFB06FC25EA41
:101A400006470EFB06F607FB0EFE0BFB07F71EEB29
:101A5000064E4CEB164C4FF000061EEB074E4CEBBF
:101A6000174B18EB0B0840F1000018EB0E0B58EB6E
:101A7000000840F100008F1A4FF000013CBFC9433D
:101A8000661B14BFB5EB040C00213CBFC943F61B19
:101A90004FEA17444EEA8E0E27EA04454FEA1C47E8
:101AA00004FB07622CEA074C05FB07F70CFB05F665
:101AB00004FB0CFC16EB074642EB174216EB0C46F8
:101AC00042EB1C421BEB060658EB0202414146EA80
:101AD0009E0601D5BDE80189B619524141EB0101CD
:101AE000A3F10103BDE801894FEA14454FEA11470C
:101AF00024EA054621EA074C05FB07F406FB07F735
:101B00000CFB06F105FB0CFC11EB074144EB174401
:101B10004FEA124711EB0C4144EB1C4422EA074CFC
:101B200005FB07F206FB07F70CFB06F605FB0CFCB2
:101B300016EB074642EB174216EB0C4642EB1C45F0
:101B40006A1854F1000148BF7047B619524141EB81
:101B50000101A3F10103704795F0000F37D04FEA60
:101B600011424FEA144721EA024624EA074C02FBDD
:101B700007F106FB07F70CFB06F402FB0CFC14EB69
:101B8000074441EB17414FEA154714EB0C4441EB76
:101B90001C4125EA074C02FB07F506FB07F70CFB87
:101BA00006F602FB0CFC16EB074645EB174516EB59
:101BB0000C4645EB1C42121951F1000148BF704719
:101BC000B619524141EB0101A3F1010370474FEAFD
:101BD00014454FEA114724EA054621EA074C05FB64
:101BE00007F106FB07F70CFB06F24FF0000605FBBA
:101BF0000CFC12EB074241EB174112EB0C4251EB8C
:101C00001C4148BF7047921841EB0101A3F1010349
:101C10007047000006A1016008A141600521017222
:101C200004214172012181720021C17270470000BC
:101C30004553505F383236360000000031323334BD
:101C4000353637383900000008B5642211460320C4
:101C500001F0B0F80020082332A21821009001F012
:101C600059FD01F04DFC4FF4487007F08BFB00224A
:101C70001146052001F09EF8002008232CA218210F
:101C8000009001F047FD01F03BFC4FF4FA7007F0C3
:101C900079FB6E226421012001F08CF800200823DA
:101CA00026A21821009001F035FD01F029FC4FF427
:101CB0007A7007F067FB00221146052001F07AF8E0
:101CC000002008231AA21821009001F023FD01F042
:101CD00017FC4FF4FA7007F055FB642211460320FD
:101CE00001F068F8002008230EA21821009001F0EE
:101CF00011FD01F005FC40F2D52007F043FB002266
:101D00001146052001F056F80020082308A21821EA
:101D1000009001F0FFFC01F0F3FB4FF4FA7007F0C4
:101D200031FB08BD5475726E204C6566742000004E
:101D300053544F502020202020200000466F7277FF
:101D4000617264202020000008B56422114604203E
:101D500001F030F80020082332A21821009001F091
:101D6000D9FC01F0CDFB4FF4487007F00BFB0022CB
:101D70001146052001F01EF8002008232CA218218E
:101D8000009001F0C7FC01F0BBFB4FF4FA7007F0C4
:101D9000F9FA6E226421012001F00CF800200823DA
:101DA00026A21821009001F0B5FC01F0A9FB4FF428
:101DB0007A7007F0E7FA00221146052000F0FAFFDA
:101DC000002008231AA21821009001F0A3FC01F0C2
:101DD00097FB4FF4FA7007F0D5FA642211460420FD
:101DE00000F0E8FF002008230EA21821009001F067
:101DF00091FC01F085FB40F2D52007F0C3FA0022E8
:101E00001146052000F0D6FF0020082308A2182163
:101E1000009001F07FFC01F073FB4FF4FA7007F0C3
:101E2000B1FA08BD5475726E20526967687400007B
:101E300053544F502020202020200000466F7277FE
:101E4000617264202020000010B5012001F064FDC3
:101E5000002001F061FD10BD08B501460020009092
:101E6000034800900098084400900098008808BD3E
:101E7000006C004008B500220092044A0092009ACB
:101E800002440092009A116008BD0000006C0040FE
:101E900000BFFEE710B5002408E01E2007F072FA2C
:101EA000601CC4B2642C01DB012010BD0121034879
:101EB00000F0FDFA0028F0D100BFF6E7000801406D
:101EC00003A1016008A14160002101727047000078
:101ED00036303030323437323835393530313230CF
:101EE000353237340000000031323334353637387C
:101EF000000000007047000070B500250BE04FF4B3
:101F0000FA7207A107A000F005FA0446012C00D1DF
:101F100070BD681CC5B20A2DF1DB0020F8E7000097
:101F20004F4B00004154000070B50446002509489D
:101F3000008800F4004058B1002006490988C1F328
:101F40000D01054A505421461046FEF7C9FB0546CF
:101F5000284670BD3E0000204404002070B50546B0
:101F60000848007A08B9002070BD4FF4FA720021C9
:101F7000284600F0CFF90446012C00D1F4E70020F8
:101F8000F2E700000011002030B58DB004460AA130
:101F90006846D4E90023FEF7F3F942F210720CA16F
:101FA000684600F0B7F90546012D02D120720DB048
:101FB00030BD0020FBE7000041542B41544B434C03
:101FC000445354413D222573222C222573220000C4
:101FD000434C4F554420434F4E4E454354454400D7
:101FE00008B500BF5F48FFF7CFFF0128FAD10823EB
:101FF0005DA210210090002001F08CFBAEE001F00A
:102000007FF800F0A3FA5E4908705E4801F0D8F846
:1020100000287CD15B48007845287DD15148007A62
:10202000002874D05848008800F400400028F8D0F8
:10203000002055490988C1F30E01544A505454A058
:10204000FFF78CFF55A001F0F9FE60B16E2264210C
:10205000012000F0AFFE0020082352A218210090BA
:1020600001F058FB50E052A001F0E8FE60B16E2292
:102070006421022000F09EFE002008234FA21821B8
:10208000009001F047FB3FE04FA001F0D7FE60B1A8
:1020900064221146032000F08DFE002008234CA28C
:1020A0001821009001F036FB2EE04CA001F0C6FE96
:1020B00060B164221146042000F07CFE0020082359
:1020C00048A21821009001F025FB1DE048A001F076
:1020D000B5FE60B100221146052000F06BFE002025
:1020E000082345A21821009001F014FB0CE0002207
:1020F0001146052000F05EFE0120082341A21821B0
:102100000090002001F006FB01F0FAF901E01FE069
:1021100002E002F0C9FE1BE000221146052000F09B
:1021200049FE00F081F802F0BFFE0120082335A22D
:1021300018210090002001F0EDFA0120082334A2BC
:1021400010210090002001F0E5FA01F0D9F906E035
:1021500002F01CF902F0CEF800F07CFC4FE700BF63
:1021600008BD00000011002045535038323636209B
:10217000436F6E74726F6C204D6F646520000000B9
:10218000720300206F0300203E0000204404002062
:10219000726563656976656400000000666F72773A
:1021A00061726400466F72776172642020200000C3
:1021B0006261636B77617264000000004261636B6F
:1021C00077617264202000006C6566740000000076
:1021D0005475726E204C65667420000072696768E1
:1021E000740000005475726E2052696768740000B4
:1021F00073746F700000000053544F502020202053
:10220000202000002020202020202020202000004E
:1022100020202020202020202020202020202020BE
:10222000202020202000000010B54FF4FA7207A1F2
:102230000BA000F06FF80446012C04D100200C49DB
:102240000872012010BD0020FCE70000434C4F55F0
:102250004420444953434F4E4E4543540000000030
:1022600041542B41544B434C44434C530000000019
:102270000011002008B50121402001F02DFB4FF492
:102280008040ADF8000010208DF8030003208DF889
:1022900002006946014800F07FF808BD00180140BF
:1022A00010B5002006490860642007F06BF8012093
:1022B0000449C1F8B8014FF4FA7007F063F810BD93
:1022C000B80123420000234210B54FF4E13002F080
:1022D00087FDFFF7CFFFFFF7E3FF0A4801F082FE1B
:1022E0000948FFF797FC094802F09AF90848FFF7F8
:1022F000E7FDFFF701FE0446012C00D110BD0020D0
:10230000FCE70000DC100020E8100020F4100020A2
:102310000011002070B506460C46154600201249F3
:102320000880314611A002F0CDFDBCB1B5B110E07E
:102330000D48008800F4004040B12046FFF7F4FD4E
:1023400008B1012070BD002007490880012007F076
:1023500019F82800A5F101018DB2E9D10CB90120CD
:10236000F0E70020EEE700003E00002025730D0A94
:102370000000000010B5012000F008F8FFF78AFD0A
:10238000012801D102F007F910BD000001490860E1
:1023900070470000140401402DE9F0410246002579
:1023A0000026002000230024002791F803C00CF031
:1023B0000F0591F803C00CF0100CBCF1000F03D016
:1023C00091F802C04CEA050591F800C0BCF1000F7D
:1023D00031D0146800202BE04FF0010C0CFA00F310
:1023E000B1F800C00CEA03069E4220D183004FF0F2
:1023F0000F0C0CFA03F7BC4305FA03FC4CEA040487
:1024000091F803C0BCF1280F06D14FF0010C0CFA73
:1024100000FCC2F814C00AE091F803C0BCF1480FF8
:1024200005D14FF0010C0CFA00FCC2F810C0401CA2
:102430000828D1D31460B1F800C0BCF1FF0F34DD1F
:10244000546800202EE000F1080C4FF0010808FA53
:102450000CF3B1F800C00CEA03069E4221D18300C0
:102460004FF00F0C0CFA03F7BC4305FA03FC4CEADF
:10247000040491F803C0BCF1280F05D100F1080C49
:1024800008FA0CF8C2F8148091F803C0BCF1480FA8
:1024900007D100F1080C4FF0010808FA0CF8C2F857
:1024A0001080401C0828CED35460BDE8F08102465D
:1024B000002093680B400BB1012000E00020704722
:1024C00041617047016170472DE9F05F04460D4698
:1024D0000026207B10B92561012020732946206940
:1024E0000BF016F860614FF08040A1690AF008FF18
:1024F000834661690BF001F88246E1690AF000FD4C
:102500008146A1680AF0FCFE0746616960680AF02E
:10251000F7FE8246D4E905010AF0FAFF83462168F6
:102520000AF0EEFE814651460AF0EAFC8046394642
:102530000AF0E6FC2062A069E0616069A061266A99
:1025400030460AF041FE00B2BDE8F09F10B508F039
:102550009DFA04460CB9012010BD0020FCE70000E4
:102560002DE9F04700BF00F08DF800BF0221294897
:10257000FFF79DFF0128F9D100202749088000219D
:10258000264802F009FB0121244802F040F900BF6F
:1025900002212048FFF78BFF0028F9D100211F48B6
:1025A00002F035F91C49098801EB810148000AF065
:1025B00089F907461A4A1B4B0AF09CF9054609F0AF
:1025C00047FF814648460AF06FFC0746164A174BFC
:1025D0000AF090F9054609F03BFF81461449484648
:1025E0000AF08EFE81464FF0804148460AF0F6FC24
:1025F000814648460AF004FE84B2B4F57A6F02DDE3
:1026000042F20F7402E0142C00DA00242046BDE8E8
:10261000F0870000001801407A0000200008004008
:10262000FCA9F1D24D62503FC3F5285C8FC2D53F63
:1026300000007A4408B50121402001F04DF9012045
:10264000ADF8000010208DF8030003208DF8020083
:1026500069460B48FFF7A0FE0220ADF800002820D5
:102660008DF8030069460648FFF796FE01210448ED
:10267000FFF726FF47210A2002F04EF808BD0000B0
:102680000018014010B501210548FFF71BFF142079
:1026900006F09EFE01210248FFF712FF10BD000068
:1026A0000018014000BFFEE710B5022006F090FEC2
:1026B00010BD000008B50121082001F00DF9C0206F
:1026C000ADF8000010208DF8030003208DF8020003
:1026D00069460448FFF760FEC0210248FFF7F2FE9A
:1026E00008BD0000000C014070B5054600241848E4
:1026F000006820F07040164908600846006840F005
:1027000000400860002617E0002012490860FFF72B
:10271000CBFF01201049C1F898016006040E0D4856
:102720007C38006820B10B487C3800682043C4B274
:10273000FFF7BAFF701CC6B2082EE5DB012D02D1EF
:1027400000F00CF801E000F05DF8204670BD0000DC
:10275000000C0140988121420080214210B50020E8
:102760000E4908600E48006820F070400C4908606F
:102770000846006840F04050086000200949C1F850
:102780009C01FFF791FF012004490860FFF78CFFCF
:1027900000200449C1F8980110BD00009881214231
:1027A000000C01400080214270B5044612480068C8
:1027B00020F07040104908600846006840F0405022
:1027C000086000200D490860002512E0E0090B496F
:1027D000091D08606006040E01200949C1F898012E
:1027E000FFF762FF002005490860FFF75DFF681CE6
:1027F000C5B2082DEADB70BD000C01409881214272
:102800000080214210B500200E4908600E48006883
:1028100020F070400C4908600846006840F04050C5
:10282000086001200949C1F89C01FFF73DFF012024
:1028300004490860FFF738FF00200449C1F89801F7
:1028400010BD000098812142000C0140008021420F
:1028500010B50E48006820F070400C49086008462A
:10286000006840F0405008600120094908600949AB
:10287000C1F89801FFF718FF002005490860FFF72D
:1028800013FF00200349C1F8980110BD000C01405E
:102890009C8121420080214210B50E48006820F042
:1028A00070400C4908600846006840F040500860DD
:1028B0000020094908600949C1F89C01FFF7F4FEAE
:1028C0000120054908600549C1F89C01FFF7ECFEAD
:1028D00010BD0000000C014098812142008021427F
:1028E00010B50024012014490860FFF7DDFE012027
:1028F0001249C1F89801FFF7D7FE1148006820F08F
:1029000070400F4908600846006840F000400860C9
:1029100007E0601CC4B2FA2C03DDFFF7BDFF002006
:1029200010BD0548803800680028F2D10249091F0F
:1029300008600120F4E700009C81214200802142D0
:10294000000C01400146CA1701EB92729210A1EBF4
:10295000820292B9642091FBF0F200FB121050B990
:102960004FF4C87091FBF0F200FB121008B901207F
:1029700070470020FCE70120FAE70020F8E710B5D7
:10298000752000F023F90446682C0CD101216B203E
:1029900000F0BCF900216C2000F0B8F9322000F002
:1029A00098F9012010BD0020FCE710B508F07EF971
:1029B00008B9012010BD0020FCE7000008B5012186
:1029C000042000F089FFF020ADF8000010208DF801
:1029D000030003208DF8020069460948FFF7DCFC7C
:1029E000F0210748FFF76CFD064800F01BFF41F699
:1029F0001F41C72001F028FE012001F06DFE08BD37
:102A000000080140F408002008B50121482000F02A
:102A100063FF2020ADF8000010208DF80300032094
:102A20008DF8020069460948FFF7B6FC20210748E7
:102A3000FFF748FD2020ADF8000069460448FFF785
:102A4000ABFC20210248FFF73DFD08BD000C014012
:102A50000018014010B50C480078401C0A49087065
:102A60000A2006F08FFC0848007832280ADD074863
:102A7000006808B9012000E0002004490860002037
:102A80000149087010BD00006E03002094812142AE
:102A900038B50546002400201C4908601E2006F0B9
:102AA00071FC01201A49C1F89C011E2006F06AFC45
:102AB0005621284607F054FF044624B9154890F8DB
:102AC0005C0156280BD00120082313A2302100906E
:102AD000002000F01FFE00F013FD204638BD284600
:102AE00002F0B2FB04465CB1012008230EA23021A3
:102AF0000090002000F00EFE00F002FD2046EDE701
:102B0000022006F03FFC2046E8E700009C812242BC
:102B100000802242A40D00206C656674206164640C
:102B200072206661696C20006C65667420696E694C
:102B300074206661696C200008B50121080200F06C
:102B4000CBFE4FF40050ADF8000010208DF80300CC
:102B500003208DF8020069461A48FFF71DFC00208B
:102B600019490860FFF7A6FD80216B2000F0CEF820
:102B7000642006F007FC00216B2000F0C7F803205A
:102B800000F083F8002000F078F8322000F0A1F87F
:102B90000021382000F0BAF800216A2000F0B6F8D1
:102BA0000021232000F0B2F88021372000F0AEF899
:102BB000FFF7E5FE20B1FFF7F8FE08B1012008BDE0
:102BC0000020FCE700200140B401244270B5044617
:102BD000FFF73EFED020FFF7E7FDFFF781FE20461E
:102BE000FFF7E2FDFFF77CFEFFF732FED120FFF793
:102BF000DBFDFFF775FE0020FFF776FD0546FFF7CA
:102C00004BFE284670BD2DE9F04106460F4614469E
:102C10001D46FFF71DFE002141EA4601C8B2FFF73D
:102C2000C3FDFFF75DFE20B9FFF736FE0120BDE8CA
:102C3000F0813846FFF7B8FDFFF752FEFFF708FEB8
:102C4000012101EB4601C8B2FFF7AEFDFFF748FED8
:102C50000DE0012C04D10020FFF746FD287003E0B1
:102C60000120FFF741FD2870601EC4B26D1C002CCE
:102C7000EFD1FFF711FE0020D9E710B50446E006BA
:102C8000010E1C2000F042F810BD10B50446E0060D
:102C9000010E1B2000F03AF810BD70B50546BC2DA2
:102CA00001DB012410E0622D01DB02240CE02A2D5F
:102CB00001DB032408E0142D01DB042404E00A2DC9
:102CC00001DB052400E0062421461A2000F01EF84E
:102CD00070BD70B50446B4F57A7F02DD4FF47A74A6
:102CE00002E0042C00DA04244FF47A7090FBF4F034
:102CF000401EC5B2264604EBD671C1F34F00FFF764
:102D0000CCFF2946192000F001F870BD70B50546CA
:102D10000C46FFF79DFDD020FFF746FDFFF7E0FDD5
:102D200018B9FFF7B9FD002070BD2846FFF73CFD3C
:102D3000FFF7D6FD2046FFF737FDFFF7D1FD18B9A5
:102D4000FFF7AAFD0020EFE7FFF7A6FD0120EBE764
:102D50002DE9F04105460E4617469846FFF778FDE7
:102D6000002141EA4501C8B2FFF71EFDFFF7B8FD9B
:102D700020B9FFF791FD0120BDE8F0813046FFF753
:102D800013FDFFF7ADFD00240CE018F80400FFF779
:102D90000BFDFFF7A5FD18B9FFF77EFD0120EBE75E
:102DA000601CC4B2BC42F0DBFFF776FD0020E3E715
:102DB00000BFFEE72DE9F04105460E461746022DFD
:102DC0002EDC304881683048FFF77EFB804600EB00
:102DD000D8704410012D10D1391988B201F0C0F912
:102DE000311B88B201F0B2F990212848FFF768FB47
:102DF00060212648FFF766FB41E0391988B201F0EF
:102E0000AFF9A6F10A01091B88B201F09FF9602110
:102E10001E48FFF755FB90211C48FFF753FB2EE09F
:102E2000194801F019F8032D0ED1384601F098F930
:102E3000304601F08BF950211448FFF741FBA021E7
:102E40001248FFF73FFB1AE0042D0ED1384601F07F
:102E500087F9304601F07AF9A0210C48FFF730FBE2
:102E600050210A48FFF72EFB09E0F0210748FFF741
:102E700027FB002001F074F9002001F067F9BDE89C
:102E8000F0810000980D0020F408002000080140A7
:102E90007047000008B50120082345A210210090CA
:102EA000002000F037FC80E000F02AF9FFF74EFB2D
:102EB00045490870454800F083F900286FD1434820
:102EC0000078312853D141484078A0280CD16E2297
:102ED00064210120FFF76EFF002008233CA2182187
:102EE000009000F017FC3FE03848407820280CD1D3
:102EF0006E2264210220FFF75DFF0020082337A225
:102F00001821009000F006FC2EE0304880780E2852
:102F10000CD1642211460320FFF74CFF0020082348
:102F200031A21821009000F0F5FB1DE027488078C1
:102F300006280CD1642211460420FFF73BFF002035
:102F400008232CA21821009000F0E4FB0CE00022E2
:102F500011460520FFF72EFF0120082328A2182183
:102F60000090002000F0D6FB00F0CAFA17E0002223
:102F700011460520FFF71EFF0120082320A218217B
:102F80000090002000F0C6FB012008231FA21021A2
:102F90000090002000F0BEFB00F0B2FA06E001F065
:102FA000F5F901F0A7F9FFF755FD7DE700BF08BD72
:102FB0004E524632344C303120436F6E74726F6C17
:102FC000204D6F6465000000720300206F03002035
:102FD000466F727761726420202000004261636B4B
:102FE00077617264202000005475726E204C656613
:102FF000742000005475726E205269676874000076
:103000002020202020202020202000002020202000
:1030100020202020202020202020202020202020B0
:103020002000000000B587B001214FF4847000F04B
:1030300053FC4FF48050ADF8180010208DF81B00A1
:1030400003208DF81A0006A92848FFF7A5F94FF4C8
:1030500080512648FFF736FAC020ADF8180006A9BF
:103060002348FFF799F94FF48070ADF81800282035
:103070008DF81B0006A91E48FFF78EF94FF4E0718A
:103080001B48FFF71DFA00F0EFFE0021194800F081
:1030900071FF0020ADF804004FF48270ADF8060017
:1030A0000020ADF80800ADF80A00ADF80C004FF4B0
:1030B0000070ADF80E001820ADF810000020ADF83B
:1030C00012000720ADF8140001A90A4800F06CFFB7
:1030D0000121084800F04EFF002007490860012048
:1030E0000649C1F89C0107B000BD0000000C01407A
:1030F0000020014000380040980124420000244292
:1031000010B5002011490860052211492A2000F05D
:1031100075F80121212000F08FF80121222000F014
:103120008BF82821252000F087F82021312000F09D
:1031300083F80F21262000F07FF80F21202000F0D7
:103140007BF801200349C1F8980110BD9801244281
:103150000BD70008000024422DE9F04107460D4638
:10316000164600200A490860384600F0C7FE80462F
:10317000002405E0FF2000F0C1FE2855601CC4B209
:10318000B442F7DB0120024908604046BDE8F08107
:103190009C01244270B5044600200749086020467F
:1031A00000F0ACFEFF2000F0A9FE05460120034917
:1031B000C1F89C01284670BD9C01244200002442B5
:1031C00070B50446102000F0C1FE0720FFF7E2FFB3
:1031D00005462946272000F02FF805F0400050B1A1
:1031E000202221466120FFF7B7FFFF21E22000F0F7
:1031F00023F8002070BD0120FCE700002DE9F0411C
:1032000007460C46154600200A490860384600F07B
:1032100075FE8046002605E014F8010B00F06EFEF6
:10322000701CC6B2AE42F7DB01200249086040467E
:10323000BDE8F0819C01244270B505460C46002093
:1032400007490860284600F059FE0646204600F06F
:1032500055FE01200349C1F89C01304670BD0000B5
:103260009C0124420000244210B54FF4A06000F0FD
:1032700039F810BD70B5002100230F22C47804B3C3
:10328000154C246804F4E064C4F5E064210AC1F13B
:103290000403CA40447804FA03F1847814402143BB
:1032A00009010E4C0678A155047804F01F0501248D
:1032B000AC4005786D11AD0005F1E025C5F8004181
:1032C00009E0047804F01F050124AC40044D0678A1
:1032D000761145F8264070BD0CED00E000E400E0FA
:1032E00080E100E002490143024A1160704700009A
:1032F0000000FA050CED00E030B500240CE00025DC
:1033000006E00020074901EBC5010855681CC5B25D
:10331000802DF6DB601CC4B2082CF0DB00F0F0F866
:1033200030BD000018090020F0B514460B46CF1739
:1033300001EB5777C7F3C702CF1701EB5777FF10A1
:10334000A1EBC707FEB20123B340DDB24CB1134B72
:1033500003EBC0039B5C2B43104F07EBC007BB5430
:103360001AE00E4B03EBC0039B5CDB430B4F07EBF8
:10337000C007BB54094B03EBC0039B5C2B43074FB7
:1033800007EBC007BB54054B03EBC0039B5CDB435F
:10339000024F07EBC007BB54F0BD00001809002026
:1033A00008B50121802000F097FA1F20ADF8000039
:1033B00010208DF8030003208DF80200694647486D
:1033C000FEF7EAFF1F214548FFF77CF843480068F5
:1033D00020F47060414908600846006840F440707D
:1033E000086000203E490860C82005F0CBFF01209E
:1033F0003C49C1F888010021AE2000F0B1F900215C
:10340000084600F0ADF90021102000F0A9F90021D4
:10341000D52000F0A5F90021802000F0A1F90021BD
:10342000A82000F09DF900213F2000F099F900212B
:10343000D32000F095F90021084600F091F9002111
:10344000B02000F08DF90021402000F089F9002122
:103450008D2000F085F90021142000F081F9002171
:10346000A12000F07DF90021C82000F079F90021A9
:10347000DA2000F075F90021122000F071F9002126
:10348000812000F06DF90021BF2000F069F90021D2
:10349000D92000F065F90021F12000F061F9002148
:1034A000DB2000F05DF90021302000F059F9002107
:1034B000202000F055F90021084600F051F90021C4
:1034C000A42000F04DF90021A62000F049F90021C8
:1034D000AF2000F045F9FFF70FFF08BD001C0140C9
:1034E000888123420080234210B50246012000E07B
:1034F00050430B00A1F10104E1B2F9D110BD00006D
:1035000030B500241CE004F1B001C8B2002100F085
:1035100027F90021084600F023F90021102000F0CF
:103520001FF9002508E0084901EBC501085D0121EC
:1035300000F016F9681CC5B2802DF4DB601CC4B223
:10354000082CE0DB30BD0000180900202DE9FE4FFB
:103550000746884692461C460197CDF80080082C05
:1035600002D14FF006091FE02046E31704EB537326
:10357000DB1021464FEAE47C04EB5C7C4FEAEC0C68
:10358000A4EBCC0CBCF1000F02D04FF0010C01E019
:103590004FF0000C6344224604EBD27C4FEA6C0CE3
:1035A00003FB0CF303F0FF09AAF12000C6B20025CB
:1035B0005EE0082C07D106EB46002F4901EB4000E6
:1035C00010F805B01DE00C2C07D106EB46002B4986
:1035D00001EB800010F805B013E0102C05D128484D
:1035E00000EB061010F805B00BE0182C07D106EB25
:1035F000C600244901EB800010F805B001E0BDE8E9
:10360000FE8F002002901CE00BF0010028B1414623
:1036100038460C9AFFF788FE09E00C9808B901209B
:1036200000E00020024641463846FFF77DFE4FEAA3
:103630006B0B08F1010000F0FF080298401CC0B2BB
:10364000029002980828DFDB781CC7B2082C0BD048
:1036500004EBD4714A100199791A8A4204D1019F6E
:1036600000980830C0B20090DDF80080681CC5B238
:103670004D459EDB00BFC2E710D7000838D90008CF
:10368000ACDD00089CE300082DE9FF4F82B0064640
:1036900091461F46DDE90F4A4FF0000B082C01D17F
:1036A0004FF0020B002530E0781B401EC1B20A200B
:1036B000FFF71AFFB9FBF0F00A21B0FBF1F201FBB2
:1036C0001208B8F1000F0ED104EBD4710BEB6101BD
:1036D00001FB0561C8B223463022CDE900A403995D
:1036E000FFF734FF0FE004EBD4710BEB610101FB3A
:1036F0000561C8B208F13001CAB22346CDE900A481
:103700000399FFF723FF681CC5B2BD42CCDB06B0AE
:10371000BDE8F08F2DE9F84106460F4614461D46D8
:10372000DDF81C8013E0CDF8008022782B46394666
:103730003046FFF70BFF082D02D1B01DC6B205E0E1
:10374000284605EBD07106EB6101CEB2641C2078EF
:10375000202802DB20787E28E5DDBDE8F881000026
:1037600010B5294B1B6823F47043274C2360234674
:103770001B6843F44053236023461B6823F47023E3
:10378000236023461B6843F44033236023461B68B1
:1037900023F00F03236023461B6843F003032360D9
:1037A00023461B6823F0F003236023461B6843F085
:1037B00030032360012903D10123144C236003E06B
:1037C00011B90023114C23600023104C241D2360E9
:1037D00000220FE000230D4C0C3C2360C3090C4C6D
:1037E000C4F884314306180E0123084C0C3C2360B6
:1037F000531CDAB2082AEDDB0123044C241D23609C
:10380000034CC4F88C3110BD001C01408C81234254
:10381000008023420021016141618161C161016237
:103820000173704700B50246104600F005F81046D7
:10383000FFF7F0FF00BD0000024901600021416078
:10384000816070470000A040014908627047000095
:1038500000000E420A48006840F004000849086071
:103860000846006840F0020008600648006840F022
:1038700004000449086000BF00BF30BF704700006B
:103880000070004010ED00E0014908607047000042
:10389000A0000E427047000029B1064AD2690243D7
:1038A000044BDA6104E0034AD2698243014BDA61D6
:1038B000704700000010024029B1064A1269024315
:1038C000044B1A6104E0034A12698243014B1A61F6
:1038D000704700000010024029B1064A9269024375
:1038E000044B9A6104E0034A92698243014B9A6156
:1038F000704700000010024029B1064AD268024316
:10390000044BDA6004E0034AD2688243014BDA6078
:103910007047000000100240014908607047000035
:10392000400442420348406A40F0807001494862C6
:10393000704700000010024030B500210022002432
:1039400000232D4D6D6805F00C0121B1042905D02F
:10395000082923D105E0294D056022E0274D0560A7
:103960001FE0254D6D6805F47012234D6D6805F458
:103970008034022505EB92421CB9214D5543056068
:103980000BE01D4D6D6805F400351DB11C4D554310
:10399000056002E0194D5543056002E0174D0560D2
:1039A00000BF00BF144D6D6805F0F0010909154D09
:1039B0006B5C0568DD4045600F4D6D6805F4E061A6
:1039C000090A104D6B5C4568DD4085600A4D6D68E5
:1039D00005F46051C90A0B4D6B5C4568DD40C5605C
:1039E000054D6D6805F44041890B074D6B5CC5685A
:1039F000B5FBF3F5056130BD0010024000127A00FE
:103A000000093D00140000202400002010B50146EC
:103A10000022002300204A11012A02D1094C236808
:103A200006E0022A02D1074C236A01E0054C636AD2
:103A300001F01F02012494401C400CB1012000E061
:103A4000002010BD0010024000210B4A11700A4AEC
:103A5000203A82F82010012802D0042808D103E07F
:103A60000121054A117004E00521034A117000E0AC
:103A700000BF00BF704700002010024001490860ED
:103A8000704700003C0442420249096A0143014A6E
:103A9000116270470010024038B50546002400202E
:103AA0001C4908601E2005F06DFC01201A49C1F870
:103AB000B8011E2005F066FC5821284608F020F9C0
:103AC000044624B9154890F85C0158280BD0012011
:103AD000082313A2302100900020FFF71BFEFFF700
:103AE0000FFD204638BD284601F0AEFB04465CB110
:103AF000012008230EA2302100900020FFF70AFECB
:103B0000FFF7FEFC2046EDE7022005F03BFC2046D7
:103B1000E8E70000B881234200802342040F002020
:103B200072696768742061646472206661696C0000
:103B3000726967687420696E6974206661696C00D7
:103B400010B5022000F072F8022000F003F800F037
:103B500059F910BD024909888143014A1180704713
:103B60000428004010B50420FEF776F94AF2A5516A
:103B7000884207D000F02AF84AF2A5510420FEF747
:103B800079F90DE07B20FFF741FF10B97A20FFF7AC
:103B90003DFFFFF7C7FE0120FFF770FF00F03CF983
:103BA00010BD00000348008840F010000149088063
:103BB0007047000004280040034800884FF6EF716A
:103BC00008400149088070470428004010B50121D1
:103BD0004FF0C050FFF760FE0120FFF735FEFEF703
:103BE00033F90120FFF730FF00BF4120FFF70EFF40
:103BF0000028FAD04FF48070FFF746FF0120FFF74E
:103C00003DFF00F009F900F0FDF847F6FF7000F005
:103C1000E9F800F0F7F810BD002103480188001F03
:103C2000008841EA004070471C28004001460020FF
:103C3000064A12880A40D0B2044A121F12880A406B
:103C400012B108B1012000E00020704704280040B4
:103C50002DE9F0414FF00008002400260025002740
:103C6000FFF7DAFF80463848B8FBF0F437480088A1
:103C7000A0423BD035490C8040F2B27610E030468D
:103C8000FEF760FE40B1B4F5B77F02D3A4F5B77478
:103C900004E0701C86B206E0A4F26D14701C86B2BB
:103CA000B4F5B67FEBD800BF2948068016E0284956
:103CB0000888FEF747FE30B1012D04D11D2C01D339
:103CC0001D3C09E00CE02348405DA04203D8214898
:103CD000405D241A00E003E0681CC5B21C2CE6D24B
:103CE00000BF681C1A498870601CC8701648B8FB71
:103CF000F0F100FB11874FF46160B7FBF0F014495D
:103D000008714FF46160B7FBF0F100FB11703C21CA
:103D1000B0FBF1F00E4948714FF46160B7FBF0F170
:103D200000FB11703C21B0FBF1F201FB12000849CD
:103D300088710B46DA789978188800F00DF80449F4
:103D4000C8710120BDE8F0818051010034000020DD
:103D50002C000020FAD60008F0B503460C461546A4
:103D6000642093FBF0F0C6B2642093FBF0F700FBF5
:103D70001730C1B2132E02DD01F16400C1B2084652
:103D8000CF1701EB977701EBA707BAB2072092FB99
:103D9000F0F700FB172082B25719601EDFF82CC025
:103DA0001CF80000384482B2CF1701EB9777BF10A0
:103DB000A1EB87071FB9032C01DA501E82B207203E
:103DC00092FBF0F700FB1720C0B2F0BDEED6000862
:103DD00010B50120FFF72AFF0120FFF7BBFE00F01E
:103DE00011F810BD00B50246FFF7DCFEC2F3034038
:103DF00003490880091D0A80FFF7DEFE00BD0000B0
:103E00000828004000BF0348008800F02000002878
:103E1000F9D0704704280040074800884FF6F77132
:103E200008400549088000BF0348008800F00800EA
:103E30000028F9D0704700000428004070B50446FF
:103E400021460448FCF74CFC05460DB1012070BD2D
:103E50000020FCE74404002000210173016141615E
:103E60008161C1610162704700B587B001210820FE
:103E7000FFF732FD01218803FFF70EFD4FF460408C
:103E8000ADF8180018208DF81B0003208DF81A00DB
:103E900006A91848FEF780FA4FF460411548FEF76E
:103EA00011FB0020ADF804004FF48270ADF806005D
:103EB0000020ADF808000220ADF80A000120ADF89E
:103EC0000C004002ADF80E003820ADF810000020C4
:103ED000ADF812000720ADF8140001A9064800F063
:103EE00063F80121044800F045F8FF2000F006F8CF
:103EF00007B000BD000C01400038004070B5054619
:103F000005E0601CC4B2C82C01DD002070BD022198
:103F10000D4800F03BF80128F3D1002429460A4857
:103F200000F040F805E0601CC4B2C82C01DD0020A0
:103F3000ECE70121044800F029F80128F3D10248F8
:103F400000F02DF8C0B2E1E70038004010B504469B
:103F5000074800884FF6C7710840054908800846A1
:103F60000088204308800121014800F003F810BDBB
:103F70000038004021B1028842F04002028004E093
:103F800002884FF6BF731A40028070470246002035
:103F900013890B400BB1012000E00020704701465F
:103FA000888970478181704710B50022028802F429
:103FB00041520B884C8823438C882343CC8823436D
:103FC0000C8923434C8923438C892343CC89234385
:103FD0001A430280838B4FF2FF74234083830B8A42
:103FE000038210BD03A1016003A1416000210172A1
:103FF00070470000323031003232313132363232E5
:10400000000000007047000038B50224012008239A
:1040100035A2102100900020FFF77CFB61E0FFF744
:104020006FF8FEF793FA364908703648FFF7C8F87C
:10403000002850D133480078592834D1FEF790FA3F
:104040003149088001F0FAF9304800893049088088
:1040500030480089304908802B4800885A280CDBFA
:104060006E2264210120FEF7A5FE002008232BA26A
:1040700018210090FFF74EFB12E0002211460520A8
:10408000FEF798FE012C02D0022C08D103E0FDF7C8
:10409000DBFD022403E0FDF757FE012400BF00BF53
:1040A000FFF72EFA17E0002211460520FEF782FEE8
:1040B000012008231CA2182100900020FFF72AFBF2
:1040C000012008231BA2102100900020FFF722FBF3
:1040D000FFF716FA06E000F059F900F00BF9FEF7C9
:1040E000B9FC9CE700BF38BD53656C6620436F6E1A
:1040F00074726F6C204D6F646520202020000000DA
:10410000720300206F03002076030020A41000201B
:1041100078030020C01000207A030020466F7277D9
:1041200061726420202000002020202020202020F8
:1041300020200000202020202020202020202020BF
:1041400020202020202020202000000010B5044640
:104150002146024800F01DFD10BD00000004004093
:1041600010B504462146024800F011FD10BD0000C4
:104170000004004010B500F001F810BD0CB500209F
:10418000019000903348006840F480303149086065
:1041900000BF3048006800F4003000900198401CD7
:1041A0000190009818B90198B0F5A06FF1D1294895
:1041B000006800F4003010B10120009001E0002000
:1041C00000900098012843D12348006840F0100077
:1041D000214908600846006820F00300086008468E
:1041E000006840F0020008601A48406819494860B9
:1041F0000846406848600846406840F4806048606F
:104200000846406820F47C1048600846406840F446
:10421000E81048600846006840F08070086000BF01
:104220000C48006800F000700028F9D00948406888
:1042300020F00300074948600846406840F002004B
:10424000486000BF0348406800F00C000828F9D11E
:104250000CBD0000001002400020024038B50024D0
:1042600006E0012200212046FFF75EF8601CC4B280
:10427000802CF6DB002008230FA201210090FFF71D
:1042800049FA0020082310A2012100904820FFF7DE
:1042900041FA012008230FA2282100900020FFF7F7
:1042A00039FA0120082310A2302100900020FFF7E6
:1042B00031FAFFF725F938BD202020202F20202FAC
:1042C000202020200000000020203A20203A20203A
:1042D0002020000070693A202020202E2020726FBC
:1042E0003A202020202E000079613A202020202E24
:1042F000000000001CB5FFF7ABFC002843D00020F5
:104300000821CDE900102048028804230121002063
:10431000FFF7BAF900200821CDE900101A48827889
:10432000022301211E20FFF7AFF900200821CDE96B
:1043300000101548C278022301213020FFF7A4F9AC
:1043400000200821CDE900100F4802790223012145
:104350004820FFF799F900200821CDE900100A480C
:104360004279022301215A20FFF78EF9002008210B
:10437000CDE9001004488279022301216C20FFF767
:1043800083F9FFF7BDF81CBD2C0000201CB5734855
:10439000007801287ED172490868724908F0B0FFA0
:1043A000044608F011FF00B26F4908800846B0F9D2
:1043B000000000280EDA012008232D222821009079
:1043C0001220FFF7C3F868480088404200B26649EF
:1043D000088007E0012008232022282100901220D5
:1043E000FFF7B4F86048B0F900000A2190FBF1F43F
:1043F0000120082103232246CDE90010282118209E
:10440000FFF742F95848B0F900000A2190FBF1F299
:1044100001FB12040120082103462246CDE90010C9
:1044200028213020FFF730F94D4948684D4908F000
:1044300067FF044608F0C8FE00B24B4908800846F2
:10444000B0F9000000280EDA012008232D222821CF
:1044500000904E20FFF77AF843480088404200B2AF
:104460004149088007E001200823202228210090EC
:104470004E20FFF76BF83C48B0F900000A2190FB92
:10448000F1F40120082103232246CDE90010282160
:10449000542000E05EE0FFF7F7F83348B0F9000081
:1044A0000A2190FBF1F201FB1204012008210346CE
:1044B0002246CDE9001028216C20FFF7E5F82849B5
:1044C0008868284908F01CFF044608F07DFE00B209
:1044D000254908800846B0F9000000280EDA0120BE
:1044E00008232D22302100901220FFF72FF81E48BC
:1044F0000088404200B21C49088007E001200823E0
:104500002022302100901220FFF720F81648B0F941
:1045100000000A2190FBF1F4012008210323224628
:10452000CDE9001030211820FFF7AEF80E48B0F9A1
:1045300000000A2190FBF1F201FB12040120082186
:1045400003462246CDE9001030210846FFF79CF8CB
:10455000FEF7D6FF0020044908801CBD720300202E
:10456000980D00200000204174030020042808D189
:104570004FF0E021096941F004014FF0E0221161A0
:1045800007E04FF0E021096921F004014FF0E0223B
:1045900011617047704710B500214FF4FE70FFF7AE
:1045A000ABF900F001F810BD10B501210807FFF7C5
:1045B00073F90120FFF768F9FFF74CF910BD00000F
:1045C00010B51348006840F0010011490860084622
:1045D0004068104908400E494860084600680E4986
:1045E00008400B4908600846006820F480200860F5
:1045F0000846406820F4FE0048604FF41F008860C1
:10460000FFF7B8FD4FF000600449086010BD0000DE
:10461000001002400000FFF8FFFFF6FE08ED00E08A
:1046200003A1016006A1416000210172417270473F
:104630003139322E3136382E302E31300000000024
:10464000393039300000000030B589B005460C46DD
:1046500001210920FFF740F901210220FFF71CF991
:104660000320ADF8200018208DF8230003208DF8DA
:10467000220008A91648FDF78FFE164800F0D4F86E
:10468000ADF81850ADF814400020ADF81600ADF8A4
:104690001A0005A90F4800F081FA6020ADF8040067
:1046A0000020ADF80C000120ADF8060001A9094872
:1046B00000F0C8F901A9074800F01EFA08210548D2
:1046C00000F010FA0821034800F054FA09B030BD98
:1046D000000C01400004004010B504462146024889
:1046E00000F095F810BD00000004004010B5012155
:1046F000074800F08DF9012808D106480088401CC1
:10470000044908800121024800F07EF810BD000035
:10471000000800407A0000207FB505460C460121C4
:104720000420FFF7B9F8124800F07EF8ADF8085001
:10473000ADF804400020ADF80A00ADF8060001A96C
:104740000B4800F02BFA01221146094800F071F9DC
:104750001E208DF8000002208DF801008DF8020067
:1047600001208DF803006846FEF784FD7FBD000040
:104770000008004010B50121094800F049F968B16E
:104780000848008840F40040064908800121044898
:1047900000F03AF80021024800F039F810BD00009E
:1047A000001400403E0000207FB505460C46012164
:1047B0002020FFF771F8ADF80450ADF8004000205C
:1047C000ADF80600ADF8020069460E4800F0E6F9C3
:1047D000012211460B4800F02CF90121094800F094
:1047E00016F837208DF80C0000208DF80D000220FF
:1047F0008DF80E0001208DF80F0003A8FEF73AFD9A
:104800007FBD000000140040CA430282704721B1FE
:10481000028842F00102028004E002884FF6FE7333
:104820001A4002807047000010B504466848844270
:1048300008D10121C014FFF75FF80021E014FFF751
:104840005BF8C4E0B4F1804F08D101210846FFF7BE
:1048500033F800210120FFF72FF8B8E05D488442CB
:1048600008D101210220FFF727F800210220FFF7DD
:1048700023F8ACE05848844208D101210420FFF716
:104880001BF800210420FFF717F8A0E053488442EA
:1048900008D101210820FFF70FF800210820FFF7B9
:1048A0000BF894E04E48844208D101211020FFF714
:1048B00003F800211020FEF7FFFF88E049488442FA
:1048C00008D101212020FEF7F7FF00212020FEF76C
:1048D000F3FF7CE04448844208D101214014FFF7F3
:1048E0000BF800216014FFF707F870E03F4884429E
:1048F00009D10121C804FEF7FFFF00214FF4002079
:10490000FEF7FAFF63E03A48844209D10121080525
:10491000FEF7F2FF00214FF48010FEF7EDFF56E0A6
:104920003448844209D101214805FEF7E5FF002102
:104930004FF40010FEF7E0FF49E02F48844208D111
:1049400001214020FEF7B8FF00214020FEF7B4FF10
:104950003DE02A48844208D101218020FEF7ACFFC7
:1049600000218020FEF7A8FF31E02548844208D1CD
:1049700001218015FEF7A0FF0021A015FEF79CFF86
:1049800025E02048844209D101210804FEF7B4FF44
:1049900000214FF48030FEF7AFFF18E01A48844240
:1049A00009D101214804FEF7A7FF00214FF4003090
:1049B000FEF7A2FF0BE01548844208D101218804CC
:1049C000FEF79AFF00214FF48020FEF795FF10BDFF
:1049D000002C01400004004000080040000C004092
:1049E000001000400014004000340140004C014021
:1049F000005001400054014000180040001C0040DD
:104A000000200040004001400044014000480140B7
:104A100030B50246002000230024158A05EA010370
:104A2000958905EA010413B10CB1012000E00020D2
:104A300030BD1AB183890B43838102E083898B43A4
:104A40008381704770B5002400220023058C4FF647
:104A5000FF6635400584028C8388848B4FF68F7502
:104A60002C404FF6FC752C400D882C434FF6FF551B
:104A70002A400D894FF6FF7606EA05252A434D8820
:104A800006EA05252A43154DA84202D0144DA84236
:104A90001DD14FF2FF752A404D894FF6FF7606EA89
:104AA00005252A434FF6FF352A408D8806EA05255D
:104AB0002A434EF6FF752B404DF6FF752B408D892E
:104AC00006EA05152B43CD8906EA05152B4383809D
:104AD0008483CD888587028470BD0000002C01404E
:104AE000003401400A460021818B4FF6F7731940CC
:104AF000114381837047000070B500220023002419
:104B0000058C4EF6FF7635400584038C8488828BB5
:104B100048F6FF752A404FF6FF452A400D884FF6AC
:104B2000FF7606EA05252A434DF6FF752B400D89D1
:104B300006EA05352B434D8806EA05352B430B4D18
:104B4000A84202D00A4DA84208D14BF6FF752C406E
:104B50008D894FF6FF7606EA85152C438480828383
:104B6000CD88A0F84050038470BD0000002C0140A7
:104B7000003401400A460021818B4FF2FF73194037
:104B80004FF6FF7303EA022319438183704781873D
:104B90007047A0F840107047818470470022028857
:104BA0001D4B98420ED01D4B98420BD0B0F1804F58
:104BB00008D01B4B984205D01A4B984202D01A4B92
:104BC000984204D14FF68F731A404B881A43174B03
:104BD000984207D0164B984204D04FF6FF431A4034
:104BE000CB881A4302808B8883850B8803850A4B08
:104BF00098420BD0094B984208D00E4B984205D0F2
:104C00000D4B984202D00D4B984201D10B7A03868E
:104C10000123838270470000002C014000340140D2
:104C20000004004000080040000C0040001000405C
:104C30000014004000400140004401400048014091
:104C400010B540F225511D4800F0CBF9012834D1B0
:104C50001A4800F081FAC4B21948008800F40040F4
:104C600058BB1748008800F4804060B10A2C03D07C
:104C700000201349088020E01148008840F40040DB
:104C80000F49088019E00D2C06D10D48008840F42A
:104C900080400B49088010E009480088C0F30D00EF
:104CA00008490C5406480088401C054908800846FD
:104CB0000088C72801DD0020088010BD00380140B1
:104CC0003C0000207C03002010B586B00446012182
:104CD00044F20400FEF700FE234800F027F94FF4E9
:104CE0000070ADF8140003208DF8160018208DF820
:104CF000170005A91D48FDF74FFB4FF48060ADF884
:104D0000140004208DF8170005A91848FDF744FB8E
:104D100025208DF8000003208DF801008DF8020099
:104D200001208DF803006846FEF7A4FA01940020E4
:104D3000ADF80800ADF80A00ADF80C00ADF81000B1
:104D40000C20ADF80E0001A9074800F099F90122E6
:104D500040F22551044800F06EF90121024800F0AC
:104D6000D9F806B010BD000000380140000801402D
:104D700010B540F22551164800F033F900B314483D
:104D800000F0EAF9C4B21348008800F40040B8B952
:104D900010480088B0F5167F13DA00210E48FFF79F
:104DA000FBFE0C48008818B901210B48FFF72FFDC6
:104DB000084801880088401C064A1080074844546F
:104DC00005E00448008840F400400249088010BD16
:104DD000004800403E000020001400404404002031
:104DE00010B586B0044601218804FEF755FD012167
:104DF0000820FEF771FD294800F098F84FF4806014
:104E0000ADF8140003208DF8160018208DF8170057
:104E100005A92348FDF7C0FA4FF40060ADF814006F
:104E200004208DF8170005A91D48FDF7B5FA2720C5
:104E30008DF8000002208DF8010003208DF802009B
:104E400001208DF803006846FEF714FA0194002053
:104E5000ADF80800ADF80A00ADF80C00ADF8100090
:104E60000C20ADF80E0001A90C4800F009F9012250
:104E700040F22551094800F0DEF80121074800F012
:104E800049F841F61F4140F2E730FFF78DFC002161
:104E90000448FFF7BCFC06B010BD0000004800400D
:104EA000000C01400014004010B54FF41671034887
:104EB000FBF7D1FC00200249088010BD440400200B
:104EC0003E0000200FB438B505A800900F48009AA6
:104ED0000499FBF737FA002000900C48FBF762FCBE
:104EE00085B200240DE000BF4021094800F06CF8B5
:104EF0000128F9D10548015D054800F032F9601C30
:104F000084B2AC42EFDB38BC5DF814FB9C06002099
:104F10000048004021B1828942F40052828104E0BD
:104F200082894DF6FF731A408281704710B504469E
:104F30002048844209D101218803FEF7DDFC0021CD
:104F40004FF48040FEF7D8FC32E01B48844209D180
:104F500001214804FEF7B0FC00214FF40030FEF7B9
:104F6000ABFC25E01548844209D101218804FEF7F5
:104F7000A3FC00214FF48020FEF79EFC18E01048AF
:104F8000844209D10121C804FEF796FC00214FF4A8
:104F90000020FEF791FC0BE00A48844208D1012171
:104FA0000805FEF789FC00214FF48010FEF784FC11
:104FB00010BD00000038014000440040004800409F
:104FC000004C00400050004002460020B1F5007F38
:104FD00000D100BF13880B400BB1012000E000207E
:104FE000704770B50246002400230025002040F6DB
:104FF0006A16B14200D100BFC1F3421501F01F0390
:10500000012606FA03F3012D02D19689334006E00A
:10501000022D02D1168A334001E0968A33400C12E9
:10502000012606FA04F41688344013B10CB10120AD
:1050300000E0002070BDF0B50346002400260025E6
:10504000002040F66A17B94200D100BF1846C1F3EC
:10505000421401F01F06012707FA06F5012C01D1C1
:105060000C3004E0022C01D1103000E014301AB1F1
:1050700007682F43076002E00768AF430760F0BD91
:105080002DE9F04786B005460E460024A24600BF33
:10509000A1460027B08900B100BF2F462C8A4CF6EC
:1050A000FF700440F08804432C82AC894EF6F31064
:1050B0000440B08831890843718908430443AC81B6
:1050C000AC8A4FF6FF400440B0890443AC8201A88B
:1050D000FEF732FC1F48874202D1DDF810A001E044
:1050E000DDF80CA0A88900F4004040B10AEBCA002A
:1050F00000EB0A1031684900B0FBF1F807E00AEB59
:10510000CA0000EB0A1031688900B0FBF1F8642096
:10511000B8FBF0F004012009642101FB1089A88983
:1051200000F4004040B1322000EBC900B0FBF1F0C8
:1051300000F00700044308E0322000EB091064216E
:10514000B0FBF1F000F00F0004432C8106B0BDE885
:10515000F08700000038014001468888C0F308004D
:105160007047C1F308028280704700BFFEE700006D
:105170002DE9FC4106460F460024DA20855D012D0D
:1051800003D0022D01D0032D2ED16B4601AA01219F
:10519000304600F0FAF904460198B0F57F0F03D8C5
:1051A0000098B0F57F0F1FD9F4B92FB110493046E0
:1051B00002F048FE044617E00422FF21304601F0C9
:1051C0005DFC044300227021304601F057FC04438B
:1051D0000022FF21304601F051FC044300228021CF
:1051E000304601F04BFC04432046BDE8FC81000042
:1051F000A4010020F8B506460F460024002500BF94
:1052000001220B21304601F039FC044600220B211B
:10521000304601F033FC04436A461321304600F067
:1052200027FF0443681CC5B29DF8000000F007008A
:1052300018B1032D01DA002CE2D0032D01DB6FF051
:105240000B042046F8BD000070B592B0054600245E
:105250000123FE228921284601F0B6FB04462CB921
:1052600000228821284601F009FC04460021F02094
:1052700041554FF47A70A5F852014FF4C870A5F863
:1052800054015A48C5F858015948C5F8D400296254
:1052900002A9284600F0E1F8044654B900208DF830
:1052A00008008DF80900402202A905F11000FBF763
:1052B00098FA642005F59A7528804FF4617068802B
:1052C0004FF4FA70A8804FF42060288101202877DD
:1052D000A5F59A7501228021284601F0CFFB0443F1
:1052E0000122FF21284601F0C9FB04430022114698
:1052F000284601F0C3FB044301AA9121284600F08F
:10530000B7FE04439DF8040085F83A01012200210C
:10531000284601F0B3FB04430022FF21284601F098
:10532000ADFB044300228021284601F0A7FB044383
:10533000002609E034B9B1B20122284601F08CF808
:10534000044300E002E0761C062EF3DB00BF2CB91C
:1053500000220221284601F07FF804462CB90022E1
:105360000321284601F078F804462CB900220421D4
:10537000284601F071F804462CB900220521284680
:1053800001F06AF8044634B94FF49012002128461F
:1053900001F0C3F8044634B94FF480420121284695
:1053A00001F0BBF8044634B94FF40C120221284630
:1053B00001F0B3F804462CB900220321284601F07D
:1053C000ACF804465CB9FF2085F83001FF220121CA
:1053D000284601F053FB0446012085F8320114B938
:1053E000002185F81511204612B070BD856B0100B3
:1053F000A470090070B506460C460025054B2246F0
:105400000549304606F0DEFF05460DB1284670BD61
:105410002846FCE7C0100020A410002010B5054964
:10542000054800F069FD02220249034806F070FEBB
:1054300010BD0000040F0020A40D002010B502498B
:105440000248FFF7D7FF10BD040F0020A40D002075
:1054500002460020137C0B7070472DE9F04107468F
:105460000D46002429463846FFF7F2FF04462CB9C2
:1054700005F10801384600F051F804460CB9002047
:1054800028732CB905F11001384600F07AFA044669
:105490002CB905F11401384600F037F90446E4B997
:1054A000002617E04CB905F1240000EB8602B1B2EA
:1054B000384600F099F8044300E00DE044B905F1E6
:1054C00018008219B1B2384600F080F8044300E0B9
:1054D00002E0761C062EE5DB00BF2CB905F13C018D
:1054E000384600F029FA044624B9291D384600F050
:1054F00001F904462046BDE8F08170B506460C4629
:10550000002522460921304600F0B2FD05461DB9AE
:10551000207800F001002070284670BD7CB506465A
:105520000C46002501AAF821304600F005FE05468C
:105530002DB96A460421304600F0CCFD054655B928
:10554000BDF8040028B1BDF804100098B0FBF1F0DC
:1055500020602168B16128467CBDF8B505460C463F
:1055600000266A461321284600F082FD06469DF873
:10557000000000F0070020609DF8000000F0180017
:1055800008B16FF005063046F8BD2DE9F84307462F
:10559000884614461D4600266A460E21384600F00D
:1055A000CBFD0646BDF800000005C008206056B9D6
:1055B0006A460C21384600F0BFFD0646BDF80000E3
:1055C0000005C00828603046BDE8F88330B50346C2
:1055D0000020062903DB001F0025157003E003F1FE
:1055E00028056C5C147030BD2DE9F84305460E4665
:1055F00017464FF00008C146062E2FD2DFE806F00E
:105600000307161A1E1F6C6B4FF0000929E06A464B
:105610004421284600F090FD8046B8F1000F02D1E9
:10562000BDF8000044024FF001091AE0EC6B4FF0A6
:10563000000916E02C6C4FF0000912E000BF6A462A
:105640006421284600F078FD8046B8F1000F02D1B1
:10565000BDF8000044024FF0000902E06FF00308BB
:1056600000BF00BFB8F1000F16D1B9F1010F12D180
:1056700044B905F1340050F826403C6000210C3854
:10568000815509E03C6005F1340040F826400121D5
:105690000C38815500E03C604046BDE8F8832DE9B8
:1056A000FC4105460C460026DA20475D042F0DD14B
:1056B00069462846FFF751FF06460098042802D1A4
:1056C0000120207013E00020207010E001AA1421B6
:1056D000284600F0CDFC06464EB99DF8040000F0C7
:1056E000010010B10120207001E000202070304640
:1056F000BDE8FC8170B504460D46002629462046CB
:1057000002F014F80646304670BD70B504460D46EA
:1057100000262946204602F080F80646304670BD35
:1057200070B504460D4600262946204602F0A0F832
:105730000646304670BD2DE9F04F93B005460C4645
:105740004FF000080C230AAA1421284600F026FD79
:105750008046B8F1000F7DD10020A07520609DF833
:1057600033009DF8321000EB012087B2002060600A
:105770009DF82F009DF82E1000EB01200004C609B3
:10578000E6609DF831009DF8301000EB012080B2FA
:105790000F900F98400220619DF82B009DF82A1071
:1057A00000EB01201FFA80F9A4F814909DF828005E
:1057B0001290B5F852010D9095F831B10D98B0F5F1
:1057C0007A7F2AD00D98784300F5FA704FF47A71F9
:1057D00090FBF1F087B2288C80B20E90287F109059
:1057E0001098D0B10E9800FB09F0A6EB202040B92C
:1057F000BBF1000F02D042F2B82A0DE048F6E02AD1
:105800000AE007FB06F10E9800FB09F0A6EB20204A
:10581000B1FBF0F01FFA80FA5746BBF1000F05D03C
:10582000B8102081B807000EE07502E02781002043
:10583000E07511A84B463246CDE900402846129942
:1058400002F07CF940EA0808B8F1000F02D19DF897
:1058500044002076B8F1000F20D11C2205F1500140
:1058600003A8FAF7BEFF2089ADF81400E07D8DF89B
:1058700023006089ADF8160060680490E068069027
:1058800020690790A08AADF82000207E8DF82400C2
:105890001C2203A905F15000FAF7A3FF404613B0FC
:1058A000BDE8F08FF8B506460C46002500200090B4
:1058B0006A460121304600F0DBFB05463DB9234630
:1058C0009DF800200021304606F072FA05463DB9E9
:1058D000A31C9DF800200121304606F069FA054618
:1058E0003DB9631C9DF800200221304606F060FAA5
:1058F00005463DB9E31C9DF800200321304606F023
:1059000057FA05463DB9231D9DF800200421304675
:1059100006F04EFA05462846F8BD2DE9F04104464A
:105920000D461646002732462946204602F051FA17
:1059300007463846BDE8F081F8B506460C46002516
:105940006A460121304600F093FB05466DB99DF88B
:10595000000086F830019DF8000000F0800010B1D2
:105960000120207001E00020207015B9217886F810
:105970004C102846F8BD10B502460020137F0B706E
:1059800010BDF8B504460E4600276A462021204681
:1059900000F0D2FB074677B9BDF8000020B9256AB0
:1059A00035600021217706E0BDF80000C5003560B4
:1059B0002562012121773846F8BD10B5022003F099
:1059C00007FD10BD08B50121A020FDF785FF30209F
:1059D000ADF8000010208DF8030003208DF80200C0
:1059E00069460A48FCF7D8FC4FF4C050ADF80000F7
:1059F00069460748FCF7D0FC4FF4C0510448FCF757
:105A000061FD30210148FCF75DFD08BD0014014037
:105A1000001C01402DE9F04106460F460025022FEB
:105A200032D13248006820F47020304908600846BE
:105A3000006840F400200860002417E000202C4992
:105A40000860FFF7BAFF01202A49C1F8AC016806D7
:105A5000050E27487C38006820B125487C3800684E
:105A60002843C5B2FFF7A9FF601CC4B2082CE5DBD0
:105A7000012E03D1022000F045F802E0022000F0E0
:105A8000EFF82846BDE8F0811B48006820F470005C
:105A9000194908600846006840F4000008600024C6
:105AA00017E0002015490860FFF787FF012014491F
:105AB000C1F890016806050E10487C38006820B1D6
:105AC0000E487C3800682843C5B2FFF776FF601C9B
:105AD000C4B2082CE5DB012E03D1012000F012F83E
